{
  "contractName": "DecentralBank",
  "abi": [
    {
      "inputs": [
        {
          "internalType": "contract RWD",
          "name": "_rwd",
          "type": "address"
        },
        {
          "internalType": "contract Tether",
          "name": "_tether",
          "type": "address"
        }
      ],
      "stateMutability": "nonpayable",
      "type": "constructor"
    },
    {
      "inputs": [
        {
          "internalType": "address",
          "name": "",
          "type": "address"
        }
      ],
      "name": "StakingBalance",
      "outputs": [
        {
          "internalType": "uint256",
          "name": "",
          "type": "uint256"
        }
      ],
      "stateMutability": "view",
      "type": "function",
      "constant": true
    },
    {
      "inputs": [
        {
          "internalType": "address",
          "name": "",
          "type": "address"
        }
      ],
      "name": "hasStaked",
      "outputs": [
        {
          "internalType": "bool",
          "name": "",
          "type": "bool"
        }
      ],
      "stateMutability": "view",
      "type": "function",
      "constant": true
    },
    {
      "inputs": [
        {
          "internalType": "address",
          "name": "",
          "type": "address"
        }
      ],
      "name": "isStaking",
      "outputs": [
        {
          "internalType": "bool",
          "name": "",
          "type": "bool"
        }
      ],
      "stateMutability": "view",
      "type": "function",
      "constant": true
    },
    {
      "inputs": [],
      "name": "name",
      "outputs": [
        {
          "internalType": "string",
          "name": "",
          "type": "string"
        }
      ],
      "stateMutability": "view",
      "type": "function",
      "constant": true
    },
    {
      "inputs": [],
      "name": "owner",
      "outputs": [
        {
          "internalType": "address",
          "name": "",
          "type": "address"
        }
      ],
      "stateMutability": "view",
      "type": "function",
      "constant": true
    },
    {
      "inputs": [],
      "name": "rwd",
      "outputs": [
        {
          "internalType": "contract RWD",
          "name": "",
          "type": "address"
        }
      ],
      "stateMutability": "view",
      "type": "function",
      "constant": true
    },
    {
      "inputs": [
        {
          "internalType": "uint256",
          "name": "",
          "type": "uint256"
        }
      ],
      "name": "stakers",
      "outputs": [
        {
          "internalType": "address",
          "name": "",
          "type": "address"
        }
      ],
      "stateMutability": "view",
      "type": "function",
      "constant": true
    },
    {
      "inputs": [],
      "name": "tether",
      "outputs": [
        {
          "internalType": "contract Tether",
          "name": "",
          "type": "address"
        }
      ],
      "stateMutability": "view",
      "type": "function",
      "constant": true
    },
    {
      "inputs": [
        {
          "internalType": "uint256",
          "name": "_amount",
          "type": "uint256"
        }
      ],
      "name": "depositTokens",
      "outputs": [],
      "stateMutability": "nonpayable",
      "type": "function"
    },
    {
      "inputs": [],
      "name": "unstakeTokens",
      "outputs": [],
      "stateMutability": "nonpayable",
      "type": "function"
    },
    {
      "inputs": [],
      "name": "issutoken",
      "outputs": [],
      "stateMutability": "nonpayable",
      "type": "function"
    }
  ],
  "bytecode": "0x60806040526040518060400160405280600e81526020017f446563656e7472616c2062616e6b00000000000000000000000000000000000081525060019080519060200190620000519291906200014f565b503480156200005f57600080fd5b50604051620014a1380380620014a183398181016040528101906200008591906200022d565b80600260006101000a81548173ffffffffffffffffffffffffffffffffffffffff021916908373ffffffffffffffffffffffffffffffffffffffff16021790555081600360006101000a81548173ffffffffffffffffffffffffffffffffffffffff021916908373ffffffffffffffffffffffffffffffffffffffff160217905550336000806101000a81548173ffffffffffffffffffffffffffffffffffffffff021916908373ffffffffffffffffffffffffffffffffffffffff16021790555050506200036e565b8280546200015d90620002d0565b90600052602060002090601f016020900481019282620001815760008555620001cd565b82601f106200019c57805160ff1916838001178555620001cd565b82800160010185558215620001cd579182015b82811115620001cc578251825591602001919060010190620001af565b5b509050620001dc9190620001e0565b5090565b5b80821115620001fb576000816000905550600101620001e1565b5090565b60008151905062000210816200033a565b92915050565b600081519050620002278162000354565b92915050565b6000806040838503121562000247576200024662000335565b5b60006200025785828601620001ff565b92505060206200026a8582860162000216565b9150509250929050565b60006200028182620002b0565b9050919050565b6000620002958262000274565b9050919050565b6000620002a98262000274565b9050919050565b600073ffffffffffffffffffffffffffffffffffffffff82169050919050565b60006002820490506001821680620002e957607f821691505b602082108114156200030057620002ff62000306565b5b50919050565b7f4e487b7100000000000000000000000000000000000000000000000000000000600052602260045260246000fd5b600080fd5b620003458162000288565b81146200035157600080fd5b50565b6200035f816200029c565b81146200036b57600080fd5b50565b611123806200037e6000396000f3fe608060405234801561001057600080fd5b50600436106100a95760003560e01c80636f49712b116100715780636f49712b146101425780638da5cb5b14610172578063a5ce413b14610190578063c93c8f341461019a578063dd49756e146101ca578063fd5e6dd1146101e6576100a9565b806306fdde03146100ae5780631a8972d3146100cc57806344904533146100ea5780635efc071a1461011a5780636173cb1f14610138575b600080fd5b6100b6610216565b6040516100c39190610cb7565b60405180910390f35b6100d46102a4565b6040516100e19190610c81565b60405180910390f35b61010460048036038101906100ff9190610a77565b6102ca565b6040516101119190610d39565b60405180910390f35b6101226102e2565b60405161012f9190610c9c565b60405180910390f35b610140610308565b005b61015c60048036038101906101579190610a77565b61050b565b6040516101699190610c66565b60405180910390f35b61017a61052b565b6040516101879190610beb565b60405180910390f35b61019861054f565b005b6101b460048036038101906101af9190610a77565b610726565b6040516101c19190610c66565b60405180910390f35b6101e460048036038101906101df9190610ad1565b610746565b005b61020060048036038101906101fb9190610ad1565b6109f9565b60405161020d9190610beb565b60405180910390f35b6001805461022390610eba565b80601f016020809104026020016040519081016040528092919081815260200182805461024f90610eba565b801561029c5780601f106102715761010080835404028352916020019161029c565b820191906000526020600020905b81548152906001019060200180831161027f57829003601f168201915b505050505081565b600360009054906101000a900473ffffffffffffffffffffffffffffffffffffffff1681565b60056020528060005260406000206000915090505481565b600260009054906101000a900473ffffffffffffffffffffffffffffffffffffffff1681565b3373ffffffffffffffffffffffffffffffffffffffff1660008054906101000a900473ffffffffffffffffffffffffffffffffffffffff1673ffffffffffffffffffffffffffffffffffffffff1614610396576040517f08c379a000000000000000000000000000000000000000000000000000000000815260040161038d90610d19565b60405180910390fd5b60005b600480549050811015610508576000600482815481106103bc576103bb610fc2565b5b9060005260206000200160009054906101000a900473ffffffffffffffffffffffffffffffffffffffff16905060006009600560008473ffffffffffffffffffffffffffffffffffffffff1673ffffffffffffffffffffffffffffffffffffffff168152602001908152602001600020546104379190610dc6565b905060008111156104f357600360009054906101000a900473ffffffffffffffffffffffffffffffffffffffff1673ffffffffffffffffffffffffffffffffffffffff1663a9059cbb83836040518363ffffffff1660e01b815260040161049f929190610c3d565b602060405180830381600087803b1580156104b957600080fd5b505af11580156104cd573d6000803e3d6000fd5b505050506040513d601f19601f820116820180604052508101906104f19190610aa4565b505b5050808061050090610eec565b915050610399565b50565b60076020528060005260406000206000915054906101000a900460ff1681565b60008054906101000a900473ffffffffffffffffffffffffffffffffffffffff1681565b6000600560003373ffffffffffffffffffffffffffffffffffffffff1673ffffffffffffffffffffffffffffffffffffffff168152602001908152602001600020549050600081116105d6576040517f08c379a00000000000000000000000000000000000000000000000000000000081526004016105cd90610cf9565b60405180910390fd5b600260009054906101000a900473ffffffffffffffffffffffffffffffffffffffff1673ffffffffffffffffffffffffffffffffffffffff1663a9059cbb33836040518363ffffffff1660e01b8152600401610633929190610c3d565b602060405180830381600087803b15801561064d57600080fd5b505af1158015610661573d6000803e3d6000fd5b505050506040513d601f19601f820116820180604052508101906106859190610aa4565b506000600560003373ffffffffffffffffffffffffffffffffffffffff1673ffffffffffffffffffffffffffffffffffffffff168152602001908152602001600020819055506000600760003373ffffffffffffffffffffffffffffffffffffffff1673ffffffffffffffffffffffffffffffffffffffff16815260200190815260200160002060006101000a81548160ff02191690831515021790555050565b60066020528060005260406000206000915054906101000a900460ff1681565b60008111610789576040517f08c379a000000000000000000000000000000000000000000000000000000000815260040161078090610cd9565b60405180910390fd5b600260009054906101000a900473ffffffffffffffffffffffffffffffffffffffff1673ffffffffffffffffffffffffffffffffffffffff166363b0545f3330846040518463ffffffff1660e01b81526004016107e893929190610c06565b602060405180830381600087803b15801561080257600080fd5b505af1158015610816573d6000803e3d6000fd5b505050506040513d601f19601f8201168201806040525081019061083a9190610aa4565b5080600560003373ffffffffffffffffffffffffffffffffffffffff1673ffffffffffffffffffffffffffffffffffffffff168152602001908152602001600020600082825461088a9190610d70565b92505081905550600660003373ffffffffffffffffffffffffffffffffffffffff1673ffffffffffffffffffffffffffffffffffffffff16815260200190815260200160002060009054906101000a900460ff16610946576004339080600181540180825580915050600190039060005260206000200160009091909190916101000a81548173ffffffffffffffffffffffffffffffffffffffff021916908373ffffffffffffffffffffffffffffffffffffffff1602179055505b6001600660003373ffffffffffffffffffffffffffffffffffffffff1673ffffffffffffffffffffffffffffffffffffffff16815260200190815260200160002060006101000a81548160ff0219169083151502179055506001600760003373ffffffffffffffffffffffffffffffffffffffff1673ffffffffffffffffffffffffffffffffffffffff16815260200190815260200160002060006101000a81548160ff02191690831515021790555050565b60048181548110610a0957600080fd5b906000526020600020016000915054906101000a900473ffffffffffffffffffffffffffffffffffffffff1681565b600081359050610a47816110a8565b92915050565b600081519050610a5c816110bf565b92915050565b600081359050610a71816110d6565b92915050565b600060208284031215610a8d57610a8c610ff1565b5b6000610a9b84828501610a38565b91505092915050565b600060208284031215610aba57610ab9610ff1565b5b6000610ac884828501610a4d565b91505092915050565b600060208284031215610ae757610ae6610ff1565b5b6000610af584828501610a62565b91505092915050565b610b0781610df7565b82525050565b610b1681610e09565b82525050565b610b2581610e3f565b82525050565b610b3481610e63565b82525050565b6000610b4582610d54565b610b4f8185610d5f565b9350610b5f818560208601610e87565b610b6881610ff6565b840191505092915050565b6000610b80601d83610d5f565b9150610b8b82611007565b602082019050919050565b6000610ba3601d83610d5f565b9150610bae82611030565b602082019050919050565b6000610bc6602483610d5f565b9150610bd182611059565b604082019050919050565b610be581610e35565b82525050565b6000602082019050610c006000830184610afe565b92915050565b6000606082019050610c1b6000830186610afe565b610c286020830185610afe565b610c356040830184610bdc565b949350505050565b6000604082019050610c526000830185610afe565b610c5f6020830184610bdc565b9392505050565b6000602082019050610c7b6000830184610b0d565b92915050565b6000602082019050610c966000830184610b1c565b92915050565b6000602082019050610cb16000830184610b2b565b92915050565b60006020820190508181036000830152610cd18184610b3a565b905092915050565b60006020820190508181036000830152610cf281610b73565b9050919050565b60006020820190508181036000830152610d1281610b96565b9050919050565b60006020820190508181036000830152610d3281610bb9565b9050919050565b6000602082019050610d4e6000830184610bdc565b92915050565b600081519050919050565b600082825260208201905092915050565b6000610d7b82610e35565b9150610d8683610e35565b9250827fffffffffffffffffffffffffffffffffffffffffffffffffffffffffffffffff03821115610dbb57610dba610f35565b5b828201905092915050565b6000610dd182610e35565b9150610ddc83610e35565b925082610dec57610deb610f64565b5b828204905092915050565b6000610e0282610e15565b9050919050565b60008115159050919050565b600073ffffffffffffffffffffffffffffffffffffffff82169050919050565b6000819050919050565b6000610e4a82610e51565b9050919050565b6000610e5c82610e15565b9050919050565b6000610e6e82610e75565b9050919050565b6000610e8082610e15565b9050919050565b60005b83811015610ea5578082015181840152602081019050610e8a565b83811115610eb4576000848401525b50505050565b60006002820490506001821680610ed257607f821691505b60208210811415610ee657610ee5610f93565b5b50919050565b6000610ef782610e35565b91507fffffffffffffffffffffffffffffffffffffffffffffffffffffffffffffffff821415610f2a57610f29610f35565b5b600182019050919050565b7f4e487b7100000000000000000000000000000000000000000000000000000000600052601160045260246000fd5b7f4e487b7100000000000000000000000000000000000000000000000000000000600052601260045260246000fd5b7f4e487b7100000000000000000000000000000000000000000000000000000000600052602260045260246000fd5b7f4e487b7100000000000000000000000000000000000000000000000000000000600052603260045260246000fd5b600080fd5b6000601f19601f8301169050919050565b7f5374616b696e6720616d6f756e742063616e6e6f74206265207a65726f000000600082015250565b7f7374616b696e672062616c616e63652063616e2774206265207a65726f000000600082015250565b7f4f6e6c79206f776e65722063616e2063616c6c2074686520726577617264207460008201527f6f6b656e00000000000000000000000000000000000000000000000000000000602082015250565b6110b181610df7565b81146110bc57600080fd5b50565b6110c881610e09565b81146110d357600080fd5b50565b6110df81610e35565b81146110ea57600080fd5b5056fea26469706673582212206a9d871544596d499747296fc16edc67ccce6eeaace21160536b74bf8a79129264736f6c63430008060033",
  "immutableReferences": {},
  "source": "//SPDX-License-Identifier: MIT\n\npragma solidity ^0.8.5;\n\nimport \"./RWD.sol\";\nimport \"./Tether.sol\";\n\ncontract DecentralBank {\n    address public owner;\n    string public name = \"Decentral bank\";\n    Tether public tether;\n    RWD public rwd;\n\n    address[] public stakers;\n    mapping(address => uint) public StakingBalance;\n    mapping(address => bool) public hasStaked;\n    mapping(address => bool) public isStaking;\n\n    constructor(RWD _rwd, Tether _tether) {\n        tether = _tether;\n        rwd = _rwd;\n        owner = msg.sender;\n    }\n\n    //staking function\n    function depositTokens(uint _amount) public {\n        require(_amount > 0, \"Staking amount cannot be zero\");\n        //tranfer the amount to stakers\n        tether.transferfrom(msg.sender, address(this), _amount);\n        //updating staking balance\n        StakingBalance[msg.sender] += _amount;\n        if (!hasStaked[msg.sender]) {\n            stakers.push(msg.sender);\n        }\n        //update staking balance\n        hasStaked[msg.sender] = true;\n        isStaking[msg.sender] = true;\n    }\n\n    //unstake token\n    function unstakeTokens() public {\n        uint balance = StakingBalance[msg.sender];\n        require(balance > 0, \"staking balance can't be zero\");\n        //transfer the tokens to the specified contract address from our bank\n        tether.transfer(msg.sender, balance);\n        //reset staking balance\n        StakingBalance[msg.sender] = 0;\n        //update staking status\n        isStaking[msg.sender] = false;\n    }\n\n    //issue reward token\n    function issutoken() public {\n        require(owner == msg.sender, \"Only owner can call the reward token\");\n        for (uint i = 0; i < stakers.length; i++) {\n            address recipient = stakers[i];\n            uint balance = StakingBalance[recipient] / 9; //make sure to give incentive of 1/9 th of every stakers investment\n            if (balance > 0) {\n                rwd.transfer(recipient, balance);\n            }\n        }\n    }\n}\n",
  "sourcePath": "/Users/kumareshghosh/Documents/solidity01/defi-staking-app-starter/defi-staking-app-starter/src/contracts/Decentralbank.sol",
  "compiler": {
    "name": "solc",
    "version": "0.8.6+commit.11564f7e.Emscripten.clang"
  },
  "schemaVersion": "3.4.8",
  "updatedAt": "2022-08-23T05:59:23.345Z",
  "networkType": "ethereum",
  "devdoc": {
    "kind": "dev",
    "methods": {},
    "version": 1
  },
  "userdoc": {
    "kind": "user",
    "methods": {},
    "version": 1
  }
}