{
  "contractName": "RWD",
  "abi": [
    {
      "inputs": [],
      "stateMutability": "nonpayable",
      "type": "constructor"
    },
    {
      "anonymous": false,
      "inputs": [
        {
          "indexed": true,
          "internalType": "address",
          "name": "_owner",
          "type": "address"
        },
        {
          "indexed": true,
          "internalType": "address",
          "name": "_receiver",
          "type": "address"
        },
        {
          "indexed": false,
          "internalType": "uint256",
          "name": "value",
          "type": "uint256"
        }
      ],
      "name": "Approval",
      "type": "event"
    },
    {
      "anonymous": false,
      "inputs": [
        {
          "indexed": true,
          "internalType": "address",
          "name": "_from",
          "type": "address"
        },
        {
          "indexed": true,
          "internalType": "address",
          "name": "_to",
          "type": "address"
        },
        {
          "indexed": false,
          "internalType": "uint256",
          "name": "value",
          "type": "uint256"
        }
      ],
      "name": "Transfer",
      "type": "event"
    },
    {
      "inputs": [
        {
          "internalType": "address",
          "name": "",
          "type": "address"
        },
        {
          "internalType": "address",
          "name": "",
          "type": "address"
        }
      ],
      "name": "allowance",
      "outputs": [
        {
          "internalType": "uint256",
          "name": "",
          "type": "uint256"
        }
      ],
      "stateMutability": "view",
      "type": "function",
      "constant": true
    },
    {
      "inputs": [
        {
          "internalType": "address",
          "name": "",
          "type": "address"
        }
      ],
      "name": "balanceof",
      "outputs": [
        {
          "internalType": "uint256",
          "name": "",
          "type": "uint256"
        }
      ],
      "stateMutability": "view",
      "type": "function",
      "constant": true
    },
    {
      "inputs": [],
      "name": "decimals",
      "outputs": [
        {
          "internalType": "uint8",
          "name": "",
          "type": "uint8"
        }
      ],
      "stateMutability": "view",
      "type": "function",
      "constant": true
    },
    {
      "inputs": [],
      "name": "name",
      "outputs": [
        {
          "internalType": "string",
          "name": "",
          "type": "string"
        }
      ],
      "stateMutability": "view",
      "type": "function",
      "constant": true
    },
    {
      "inputs": [],
      "name": "symbol",
      "outputs": [
        {
          "internalType": "string",
          "name": "",
          "type": "string"
        }
      ],
      "stateMutability": "view",
      "type": "function",
      "constant": true
    },
    {
      "inputs": [],
      "name": "totalSupply",
      "outputs": [
        {
          "internalType": "uint256",
          "name": "",
          "type": "uint256"
        }
      ],
      "stateMutability": "view",
      "type": "function",
      "constant": true
    },
    {
      "inputs": [
        {
          "internalType": "address",
          "name": "_to",
          "type": "address"
        },
        {
          "internalType": "uint256",
          "name": "value",
          "type": "uint256"
        }
      ],
      "name": "transfer",
      "outputs": [
        {
          "internalType": "bool",
          "name": "success",
          "type": "bool"
        }
      ],
      "stateMutability": "nonpayable",
      "type": "function"
    },
    {
      "inputs": [
        {
          "internalType": "address",
          "name": "_receiver",
          "type": "address"
        },
        {
          "internalType": "uint256",
          "name": "value",
          "type": "uint256"
        }
      ],
      "name": "approve",
      "outputs": [
        {
          "internalType": "bool",
          "name": "success",
          "type": "bool"
        }
      ],
      "stateMutability": "nonpayable",
      "type": "function"
    },
    {
      "inputs": [
        {
          "internalType": "address",
          "name": "_from",
          "type": "address"
        },
        {
          "internalType": "address",
          "name": "_to",
          "type": "address"
        },
        {
          "internalType": "uint256",
          "name": "value",
          "type": "uint256"
        }
      ],
      "name": "transferfrom",
      "outputs": [
        {
          "internalType": "bool",
          "name": "success",
          "type": "bool"
        }
      ],
      "stateMutability": "nonpayable",
      "type": "function"
    }
  ],
  "bytecode": "0x60806040526040518060400160405280600c81526020017f52657761726420746f6b656e0000000000000000000000000000000000000000815250600090805190602001906200005192919062000124565b506040518060400160405280600381526020017f5257440000000000000000000000000000000000000000000000000000000000815250600190805190602001906200009f92919062000124565b5069d3c21bcecceda10000006002556012600360006101000a81548160ff021916908360ff160217905550348015620000d757600080fd5b50600254600460003373ffffffffffffffffffffffffffffffffffffffff1673ffffffffffffffffffffffffffffffffffffffff1681526020019081526020016000208190555062000239565b8280546200013290620001d4565b90600052602060002090601f016020900481019282620001565760008555620001a2565b82601f106200017157805160ff1916838001178555620001a2565b82800160010185558215620001a2579182015b82811115620001a157825182559160200191906001019062000184565b5b509050620001b19190620001b5565b5090565b5b80821115620001d0576000816000905550600101620001b6565b5090565b60006002820490506001821680620001ed57607f821691505b602082108114156200020457620002036200020a565b5b50919050565b7f4e487b7100000000000000000000000000000000000000000000000000000000600052602260045260246000fd5b610d3080620002496000396000f3fe608060405234801561001057600080fd5b50600436106100935760003560e01c80633d64125b116100665780633d64125b1461012257806363b0545f1461015257806395d89b4114610182578063a9059cbb146101a0578063dd62ed3e146101d057610093565b806306fdde0314610098578063095ea7b3146100b657806318160ddd146100e6578063313ce56714610104575b600080fd5b6100a0610200565b6040516100ad9190610a57565b60405180910390f35b6100d060048036038101906100cb9190610973565b61028e565b6040516100dd9190610a3c565b60405180910390f35b6100ee610380565b6040516100fb9190610a99565b60405180910390f35b61010c610386565b6040516101199190610ab4565b60405180910390f35b61013c600480360381019061013791906108b3565b610399565b6040516101499190610a99565b60405180910390f35b61016c60048036038101906101679190610920565b6103b1565b6040516101799190610a3c565b60405180910390f35b61018a610637565b6040516101979190610a57565b60405180910390f35b6101ba60048036038101906101b59190610973565b6106c5565b6040516101c79190610a3c565b60405180910390f35b6101ea60048036038101906101e591906108e0565b610864565b6040516101f79190610a99565b60405180910390f35b6000805461020d90610bfd565b80601f016020809104026020016040519081016040528092919081815260200182805461023990610bfd565b80156102865780601f1061025b57610100808354040283529160200191610286565b820191906000526020600020905b81548152906001019060200180831161026957829003601f168201915b505050505081565b600081600560003373ffffffffffffffffffffffffffffffffffffffff1673ffffffffffffffffffffffffffffffffffffffff16815260200190815260200160002060008573ffffffffffffffffffffffffffffffffffffffff1673ffffffffffffffffffffffffffffffffffffffff168152602001908152602001600020819055508273ffffffffffffffffffffffffffffffffffffffff163373ffffffffffffffffffffffffffffffffffffffff167f8c5be1e5ebec7d5bd14f71427d1e84f3dd0314c0f7b2291e5b200ac8c7c3b9258460405161036e9190610a99565b60405180910390a36001905092915050565b60025481565b600360009054906101000a900460ff1681565b60046020528060005260406000206000915090505481565b6000600460003373ffffffffffffffffffffffffffffffffffffffff1673ffffffffffffffffffffffffffffffffffffffff168152602001908152602001600020548211156103ff57600080fd5b600560003373ffffffffffffffffffffffffffffffffffffffff1673ffffffffffffffffffffffffffffffffffffffff16815260200190815260200160002060008573ffffffffffffffffffffffffffffffffffffffff1673ffffffffffffffffffffffffffffffffffffffff1681526020019081526020016000205482111561048857600080fd5b81600460008573ffffffffffffffffffffffffffffffffffffffff1673ffffffffffffffffffffffffffffffffffffffff16815260200190815260200160002060008282546104d79190610aeb565b9250508190555081600460008673ffffffffffffffffffffffffffffffffffffffff1673ffffffffffffffffffffffffffffffffffffffff168152602001908152602001600020600082825461052d9190610b41565b9250508190555081600560008673ffffffffffffffffffffffffffffffffffffffff1673ffffffffffffffffffffffffffffffffffffffff16815260200190815260200160002060003373ffffffffffffffffffffffffffffffffffffffff1673ffffffffffffffffffffffffffffffffffffffff16815260200190815260200160002060008282546105c09190610b41565b925050819055508273ffffffffffffffffffffffffffffffffffffffff168473ffffffffffffffffffffffffffffffffffffffff167fddf252ad1be2c89b69c2b068fc378daa952ba7f163c4a11628f55a4df523b3ef846040516106249190610a99565b60405180910390a3600190509392505050565b6001805461064490610bfd565b80601f016020809104026020016040519081016040528092919081815260200182805461067090610bfd565b80156106bd5780601f10610692576101008083540402835291602001916106bd565b820191906000526020600020905b8154815290600101906020018083116106a057829003601f168201915b505050505081565b600081600460003373ffffffffffffffffffffffffffffffffffffffff1673ffffffffffffffffffffffffffffffffffffffff168152602001908152602001600020541015610749576040517f08c379a000000000000000000000000000000000000000000000000000000000815260040161074090610a79565b60405180910390fd5b81600460003373ffffffffffffffffffffffffffffffffffffffff1673ffffffffffffffffffffffffffffffffffffffff16815260200190815260200160002060008282546107989190610b41565b9250508190555081600460008573ffffffffffffffffffffffffffffffffffffffff1673ffffffffffffffffffffffffffffffffffffffff16815260200190815260200160002060008282546107ee9190610aeb565b925050819055508273ffffffffffffffffffffffffffffffffffffffff163373ffffffffffffffffffffffffffffffffffffffff167fddf252ad1be2c89b69c2b068fc378daa952ba7f163c4a11628f55a4df523b3ef846040516108529190610a99565b60405180910390a36001905092915050565b6005602052816000526040600020602052806000526040600020600091509150505481565b60008135905061089881610ccc565b92915050565b6000813590506108ad81610ce3565b92915050565b6000602082840312156108c9576108c8610c8d565b5b60006108d784828501610889565b91505092915050565b600080604083850312156108f7576108f6610c8d565b5b600061090585828601610889565b925050602061091685828601610889565b9150509250929050565b60008060006060848603121561093957610938610c8d565b5b600061094786828701610889565b935050602061095886828701610889565b92505060406109698682870161089e565b9150509250925092565b6000806040838503121561098a57610989610c8d565b5b600061099885828601610889565b92505060206109a98582860161089e565b9150509250929050565b6109bc81610b87565b82525050565b60006109cd82610acf565b6109d78185610ada565b93506109e7818560208601610bca565b6109f081610c92565b840191505092915050565b6000610a08600583610ada565b9150610a1382610ca3565b602082019050919050565b610a2781610bb3565b82525050565b610a3681610bbd565b82525050565b6000602082019050610a5160008301846109b3565b92915050565b60006020820190508181036000830152610a7181846109c2565b905092915050565b60006020820190508181036000830152610a92816109fb565b9050919050565b6000602082019050610aae6000830184610a1e565b92915050565b6000602082019050610ac96000830184610a2d565b92915050565b600081519050919050565b600082825260208201905092915050565b6000610af682610bb3565b9150610b0183610bb3565b9250827fffffffffffffffffffffffffffffffffffffffffffffffffffffffffffffffff03821115610b3657610b35610c2f565b5b828201905092915050565b6000610b4c82610bb3565b9150610b5783610bb3565b925082821015610b6a57610b69610c2f565b5b828203905092915050565b6000610b8082610b93565b9050919050565b60008115159050919050565b600073ffffffffffffffffffffffffffffffffffffffff82169050919050565b6000819050919050565b600060ff82169050919050565b60005b83811015610be8578082015181840152602081019050610bcd565b83811115610bf7576000848401525b50505050565b60006002820490506001821680610c1557607f821691505b60208210811415610c2957610c28610c5e565b5b50919050565b7f4e487b7100000000000000000000000000000000000000000000000000000000600052601160045260246000fd5b7f4e487b7100000000000000000000000000000000000000000000000000000000600052602260045260246000fd5b600080fd5b6000601f19601f8301169050919050565b7f4552524f52000000000000000000000000000000000000000000000000000000600082015250565b610cd581610b75565b8114610ce057600080fd5b50565b610cec81610bb3565b8114610cf757600080fd5b5056fea2646970667358221220a4244bb0c562dfd91647a0a368d0646944873366dbb289943b564c0ce0ffc67a64736f6c63430008060033",
  "immutableReferences": {},
  "source": "//SPDX-License-Identifier: MIT\n\npragma solidity ^0.8.5;\n\ncontract RWD {\n    string public name = \"Reward token\";\n    string public symbol = \"RWD\";\n    uint256 public totalSupply = 1000000 ether;\n    uint8 public decimals = 18;\n\n    event Transfer(address indexed _from, address indexed _to, uint value);\n\n    event Approval(\n        address indexed _owner,\n        address indexed _receiver,\n        uint value\n    );\n\n    mapping(address => uint256) public balanceof;\n    mapping(address => mapping(address => uint256)) public allowance;\n\n    constructor() {\n        balanceof[msg.sender] = totalSupply;\n    }\n\n    function transfer(address _to, uint256 value)\n        public\n        returns (bool success)\n    {\n        require(balanceof[msg.sender] >= value, \"ERROR\");\n        balanceof[msg.sender] -= value;\n        balanceof[_to] += value;\n        emit Transfer(msg.sender, _to, value);\n        return true;\n    }\n\n    function approve(address _receiver, uint256 value)\n        public\n        returns (bool success)\n    {\n        allowance[msg.sender][_receiver] = value;\n        emit Approval(msg.sender, _receiver, value);\n        return true;\n    }\n\n    function transferfrom(\n        address _from,\n        address _to,\n        uint256 value\n    ) public returns (bool success) {\n        require(value <= balanceof[msg.sender]);\n        require(value <= allowance[msg.sender][_from]);\n\n        balanceof[_to] += value;\n        balanceof[_from] -= value;\n        allowance[_from][msg.sender] -= value;\n        emit Transfer(_from, _to, value);\n        return true;\n    }\n}\n",
  "sourcePath": "/Users/kumareshghosh/Documents/solidity01/defi-staking-app-starter/defi-staking-app-starter/src/contracts/RWD.sol",
  "compiler": {
    "name": "solc",
    "version": "0.8.6+commit.11564f7e.Emscripten.clang"
  },
  "schemaVersion": "3.4.8",
  "updatedAt": "2022-08-23T05:59:23.338Z",
  "networkType": "ethereum",
  "devdoc": {
    "kind": "dev",
    "methods": {},
    "version": 1
  },
  "userdoc": {
    "kind": "user",
    "methods": {},
    "version": 1
  }
}