{
  "contractName": "Tether",
  "abi": [
    {
      "inputs": [],
      "stateMutability": "nonpayable",
      "type": "constructor"
    },
    {
      "anonymous": false,
      "inputs": [
        {
          "indexed": true,
          "internalType": "address",
          "name": "_owner",
          "type": "address"
        },
        {
          "indexed": true,
          "internalType": "address",
          "name": "_receiver",
          "type": "address"
        },
        {
          "indexed": false,
          "internalType": "uint256",
          "name": "value",
          "type": "uint256"
        }
      ],
      "name": "Approval",
      "type": "event"
    },
    {
      "anonymous": false,
      "inputs": [
        {
          "indexed": true,
          "internalType": "address",
          "name": "_from",
          "type": "address"
        },
        {
          "indexed": true,
          "internalType": "address",
          "name": "_to",
          "type": "address"
        },
        {
          "indexed": false,
          "internalType": "uint256",
          "name": "value",
          "type": "uint256"
        }
      ],
      "name": "Transfer",
      "type": "event"
    },
    {
      "inputs": [
        {
          "internalType": "address",
          "name": "",
          "type": "address"
        },
        {
          "internalType": "address",
          "name": "",
          "type": "address"
        }
      ],
      "name": "allowance",
      "outputs": [
        {
          "internalType": "uint256",
          "name": "",
          "type": "uint256"
        }
      ],
      "stateMutability": "view",
      "type": "function",
      "constant": true
    },
    {
      "inputs": [
        {
          "internalType": "address",
          "name": "",
          "type": "address"
        }
      ],
      "name": "balanceof",
      "outputs": [
        {
          "internalType": "uint256",
          "name": "",
          "type": "uint256"
        }
      ],
      "stateMutability": "view",
      "type": "function",
      "constant": true
    },
    {
      "inputs": [],
      "name": "decimals",
      "outputs": [
        {
          "internalType": "uint8",
          "name": "",
          "type": "uint8"
        }
      ],
      "stateMutability": "view",
      "type": "function",
      "constant": true
    },
    {
      "inputs": [],
      "name": "name",
      "outputs": [
        {
          "internalType": "string",
          "name": "",
          "type": "string"
        }
      ],
      "stateMutability": "view",
      "type": "function",
      "constant": true
    },
    {
      "inputs": [],
      "name": "symbol",
      "outputs": [
        {
          "internalType": "string",
          "name": "",
          "type": "string"
        }
      ],
      "stateMutability": "view",
      "type": "function",
      "constant": true
    },
    {
      "inputs": [],
      "name": "totalSupply",
      "outputs": [
        {
          "internalType": "uint256",
          "name": "",
          "type": "uint256"
        }
      ],
      "stateMutability": "view",
      "type": "function",
      "constant": true
    },
    {
      "inputs": [
        {
          "internalType": "address",
          "name": "_to",
          "type": "address"
        },
        {
          "internalType": "uint256",
          "name": "value",
          "type": "uint256"
        }
      ],
      "name": "transfer",
      "outputs": [
        {
          "internalType": "bool",
          "name": "success",
          "type": "bool"
        }
      ],
      "stateMutability": "nonpayable",
      "type": "function"
    },
    {
      "inputs": [
        {
          "internalType": "address",
          "name": "_receiver",
          "type": "address"
        },
        {
          "internalType": "uint256",
          "name": "value",
          "type": "uint256"
        }
      ],
      "name": "approve",
      "outputs": [
        {
          "internalType": "bool",
          "name": "success",
          "type": "bool"
        }
      ],
      "stateMutability": "nonpayable",
      "type": "function"
    },
    {
      "inputs": [
        {
          "internalType": "address",
          "name": "_from",
          "type": "address"
        },
        {
          "internalType": "address",
          "name": "_to",
          "type": "address"
        },
        {
          "internalType": "uint256",
          "name": "value",
          "type": "uint256"
        }
      ],
      "name": "transferfrom",
      "outputs": [
        {
          "internalType": "bool",
          "name": "success",
          "type": "bool"
        }
      ],
      "stateMutability": "nonpayable",
      "type": "function"
    }
  ],
  "bytecode": "0x60806040526040518060400160405280601181526020017f4d6f636b2054657468657220546f6b656e000000000000000000000000000000815250600090805190602001906200005192919062000124565b506040518060400160405280600581526020017f6d55534454000000000000000000000000000000000000000000000000000000815250600190805190602001906200009f92919062000124565b5069d3c21bcecceda10000006002556012600360006101000a81548160ff021916908360ff160217905550348015620000d757600080fd5b50600254600460003373ffffffffffffffffffffffffffffffffffffffff1673ffffffffffffffffffffffffffffffffffffffff1681526020019081526020016000208190555062000239565b8280546200013290620001d4565b90600052602060002090601f016020900481019282620001565760008555620001a2565b82601f106200017157805160ff1916838001178555620001a2565b82800160010185558215620001a2579182015b82811115620001a157825182559160200191906001019062000184565b5b509050620001b19190620001b5565b5090565b5b80821115620001d0576000816000905550600101620001b6565b5090565b60006002820490506001821680620001ed57607f821691505b602082108114156200020457620002036200020a565b5b50919050565b7f4e487b7100000000000000000000000000000000000000000000000000000000600052602260045260246000fd5b610e7480620002496000396000f3fe608060405234801561001057600080fd5b50600436106100935760003560e01c80633d64125b116100665780633d64125b1461012257806363b0545f1461015257806395d89b4114610182578063a9059cbb146101a0578063dd62ed3e146101d057610093565b806306fdde0314610098578063095ea7b3146100b657806318160ddd146100e6578063313ce56714610104575b600080fd5b6100a0610200565b6040516100ad9190610b09565b60405180910390f35b6100d060048036038101906100cb91906109df565b61028e565b6040516100dd9190610aee565b60405180910390f35b6100ee610380565b6040516100fb9190610b8b565b60405180910390f35b61010c610386565b6040516101199190610ba6565b60405180910390f35b61013c6004803603810190610137919061091f565b610399565b6040516101499190610b8b565b60405180910390f35b61016c6004803603810190610167919061098c565b6103b1565b6040516101799190610aee565b60405180910390f35b61018a6106a3565b6040516101979190610b09565b60405180910390f35b6101ba60048036038101906101b591906109df565b610731565b6040516101c79190610aee565b60405180910390f35b6101ea60048036038101906101e5919061094c565b6108d0565b6040516101f79190610b8b565b60405180910390f35b6000805461020d90610cef565b80601f016020809104026020016040519081016040528092919081815260200182805461023990610cef565b80156102865780601f1061025b57610100808354040283529160200191610286565b820191906000526020600020905b81548152906001019060200180831161026957829003601f168201915b505050505081565b600081600560003373ffffffffffffffffffffffffffffffffffffffff1673ffffffffffffffffffffffffffffffffffffffff16815260200190815260200160002060008573ffffffffffffffffffffffffffffffffffffffff1673ffffffffffffffffffffffffffffffffffffffff168152602001908152602001600020819055508273ffffffffffffffffffffffffffffffffffffffff163373ffffffffffffffffffffffffffffffffffffffff167f8c5be1e5ebec7d5bd14f71427d1e84f3dd0314c0f7b2291e5b200ac8c7c3b9258460405161036e9190610b8b565b60405180910390a36001905092915050565b60025481565b600360009054906101000a900460ff1681565b60046020528060005260406000206000915090505481565b6000600460008573ffffffffffffffffffffffffffffffffffffffff1673ffffffffffffffffffffffffffffffffffffffff16815260200190815260200160002054821115610435576040517f08c379a000000000000000000000000000000000000000000000000000000000815260040161042c90610b4b565b60405180910390fd5b600560008573ffffffffffffffffffffffffffffffffffffffff1673ffffffffffffffffffffffffffffffffffffffff16815260200190815260200160002060003373ffffffffffffffffffffffffffffffffffffffff1673ffffffffffffffffffffffffffffffffffffffff168152602001908152602001600020548211156104f4576040517f08c379a00000000000000000000000000000000000000000000000000000000081526004016104eb90610b2b565b60405180910390fd5b81600460008573ffffffffffffffffffffffffffffffffffffffff1673ffffffffffffffffffffffffffffffffffffffff16815260200190815260200160002060008282546105439190610bdd565b9250508190555081600460008673ffffffffffffffffffffffffffffffffffffffff1673ffffffffffffffffffffffffffffffffffffffff16815260200190815260200160002060008282546105999190610c33565b9250508190555081600560008673ffffffffffffffffffffffffffffffffffffffff1673ffffffffffffffffffffffffffffffffffffffff16815260200190815260200160002060003373ffffffffffffffffffffffffffffffffffffffff1673ffffffffffffffffffffffffffffffffffffffff168152602001908152602001600020600082825461062c9190610c33565b925050819055508273ffffffffffffffffffffffffffffffffffffffff168473ffffffffffffffffffffffffffffffffffffffff167fddf252ad1be2c89b69c2b068fc378daa952ba7f163c4a11628f55a4df523b3ef846040516106909190610b8b565b60405180910390a3600190509392505050565b600180546106b090610cef565b80601f01602080910402602001604051908101604052809291908181526020018280546106dc90610cef565b80156107295780601f106106fe57610100808354040283529160200191610729565b820191906000526020600020905b81548152906001019060200180831161070c57829003601f168201915b505050505081565b600081600460003373ffffffffffffffffffffffffffffffffffffffff1673ffffffffffffffffffffffffffffffffffffffff1681526020019081526020016000205410156107b5576040517f08c379a00000000000000000000000000000000000000000000000000000000081526004016107ac90610b6b565b60405180910390fd5b81600460003373ffffffffffffffffffffffffffffffffffffffff1673ffffffffffffffffffffffffffffffffffffffff16815260200190815260200160002060008282546108049190610c33565b9250508190555081600460008573ffffffffffffffffffffffffffffffffffffffff1673ffffffffffffffffffffffffffffffffffffffff168152602001908152602001600020600082825461085a9190610bdd565b925050819055508273ffffffffffffffffffffffffffffffffffffffff163373ffffffffffffffffffffffffffffffffffffffff167fddf252ad1be2c89b69c2b068fc378daa952ba7f163c4a11628f55a4df523b3ef846040516108be9190610b8b565b60405180910390a36001905092915050565b6005602052816000526040600020602052806000526040600020600091509150505481565b60008135905061090481610e10565b92915050565b60008135905061091981610e27565b92915050565b60006020828403121561093557610934610d7f565b5b6000610943848285016108f5565b91505092915050565b6000806040838503121561096357610962610d7f565b5b6000610971858286016108f5565b9250506020610982858286016108f5565b9150509250929050565b6000806000606084860312156109a5576109a4610d7f565b5b60006109b3868287016108f5565b93505060206109c4868287016108f5565b92505060406109d58682870161090a565b9150509250925092565b600080604083850312156109f6576109f5610d7f565b5b6000610a04858286016108f5565b9250506020610a158582860161090a565b9150509250929050565b610a2881610c79565b82525050565b6000610a3982610bc1565b610a438185610bcc565b9350610a53818560208601610cbc565b610a5c81610d84565b840191505092915050565b6000610a74600183610bcc565b9150610a7f82610d95565b602082019050919050565b6000610a97600183610bcc565b9150610aa282610dbe565b602082019050919050565b6000610aba600383610bcc565b9150610ac582610de7565b602082019050919050565b610ad981610ca5565b82525050565b610ae881610caf565b82525050565b6000602082019050610b036000830184610a1f565b92915050565b60006020820190508181036000830152610b238184610a2e565b905092915050565b60006020820190508181036000830152610b4481610a67565b9050919050565b60006020820190508181036000830152610b6481610a8a565b9050919050565b60006020820190508181036000830152610b8481610aad565b9050919050565b6000602082019050610ba06000830184610ad0565b92915050565b6000602082019050610bbb6000830184610adf565b92915050565b600081519050919050565b600082825260208201905092915050565b6000610be882610ca5565b9150610bf383610ca5565b9250827fffffffffffffffffffffffffffffffffffffffffffffffffffffffffffffffff03821115610c2857610c27610d21565b5b828201905092915050565b6000610c3e82610ca5565b9150610c4983610ca5565b925082821015610c5c57610c5b610d21565b5b828203905092915050565b6000610c7282610c85565b9050919050565b60008115159050919050565b600073ffffffffffffffffffffffffffffffffffffffff82169050919050565b6000819050919050565b600060ff82169050919050565b60005b83811015610cda578082015181840152602081019050610cbf565b83811115610ce9576000848401525b50505050565b60006002820490506001821680610d0757607f821691505b60208210811415610d1b57610d1a610d50565b5b50919050565b7f4e487b7100000000000000000000000000000000000000000000000000000000600052601160045260246000fd5b7f4e487b7100000000000000000000000000000000000000000000000000000000600052602260045260246000fd5b600080fd5b6000601f19601f8301169050919050565b7f3200000000000000000000000000000000000000000000000000000000000000600082015250565b7f3100000000000000000000000000000000000000000000000000000000000000600082015250565b7f6572720000000000000000000000000000000000000000000000000000000000600082015250565b610e1981610c67565b8114610e2457600080fd5b50565b610e3081610ca5565b8114610e3b57600080fd5b5056fea26469706673582212209681533480230844d37633583722421e4cf50a75262f95179d1de7807b93df4e64736f6c63430008060033",
  "immutableReferences": {},
  "source": "//SPDX-License-Identifier: MIT\n\npragma solidity ^0.8.5;\n\ncontract Tether {\n    string public name = \"Mock Tether Token\";\n    string public symbol = \"mUSDT\";\n    uint256 public totalSupply = 1000000 ether;\n    uint8 public decimals = 18;\n\n    event Transfer(address indexed _from, address indexed _to, uint value);\n\n    event Approval(\n        address indexed _owner,\n        address indexed _receiver,\n        uint value\n    );\n\n    mapping(address => uint256) public balanceof;\n    mapping(address => mapping(address => uint256)) public allowance;\n\n    constructor() {\n        balanceof[msg.sender] = totalSupply;\n    }\n\n    function transfer(address _to, uint256 value)\n        public\n        returns (bool success)\n    {\n        require(balanceof[msg.sender] >= value, \"err\");\n        balanceof[msg.sender] -= value;\n        balanceof[_to] += value;\n        emit Transfer(msg.sender, _to, value);\n        return true;\n    }\n\n    function approve(address _receiver, uint256 value)\n        public\n        returns (bool success)\n    {\n        allowance[msg.sender][_receiver] = value;\n        emit Approval(msg.sender, _receiver, value);\n        return true;\n    }\n\n    function transferfrom(\n        address _from,\n        address _to,\n        uint256 value\n    ) public returns (bool success) {\n        require(value <= balanceof[_from], \"1\");\n        require(value <= allowance[_from][msg.sender], \"2\");\n\n        balanceof[_to] += value;\n        balanceof[_from] -= value;\n        allowance[_from][msg.sender] -= value;\n        emit Transfer(_from, _to, value);\n        return true;\n    }\n}\n",
  "sourcePath": "/Users/kumareshghosh/Documents/solidity01/defi-staking-app-starter/defi-staking-app-starter/src/contracts/Tether.sol",
  "compiler": {
    "name": "solc",
    "version": "0.8.6+commit.11564f7e.Emscripten.clang"
  },
  "schemaVersion": "3.4.8",
  "updatedAt": "2022-08-23T05:59:23.340Z",
  "networkType": "ethereum",
  "devdoc": {
    "kind": "dev",
    "methods": {},
    "version": 1
  },
  "userdoc": {
    "kind": "user",
    "methods": {},
    "version": 1
  }
}